:020000040800F2
:1000000000000120FD2500086D230008732300086F
:10001000792300087F2300088523000800000000E2
:100020000000000000000000000000008B2300081A
:100030009723000800000000A3230008AF23000856
:100040004D2600084D2600084D2600084D260008C4
:100050004D2600084D2600084D2600084D260008B4
:100060004D2600084D2600084D260008BD23000837
:10007000D1230008E5230008F92300084D260008D5
:100080004D2600084D2600084D2600084D26000884
:100090004D2600084D2600084D2600084D26000874
:1000A0004D2600084D2600084D2600084D26000864
:1000B0004D2600084D2600084D2600084D26000854
:1000C0004D2600084D2600084D2600084D26000844
:1000D0000D2400084D260008212400084D260008A4
:1000E0004D2600084D2600084D2600084D26000824
:1000F0004D2600084D2600084D2600084D26000814
:100100004D2600084D260008352400084D2600081D
:100110004D2600084D2600084D2600084D260008F3
:100120004D2600084D2600084D2600084D260008E3
:080130004D2600084D260008D1
:1001400010B5054C237833B9044B13B10448AFF311
:1001500000800123237010BD680000200000000013
:10016000A0D6000808B5034B1BB103490348AFF301
:10017000008008BD000000006C000020A0D6000830
:1001800001F0FF01102A2BDB10F0070F08D010F848
:10019000013B013A8B422DD010F0070F42B3F6D14C
:1001A000F0B441EA012141EA014122F007047FF065
:1001B00000070023F0E80256083C85EA010586EABC
:1001C000010685FA47F5A3FA87F586FA47F6A5FAF8
:1001D00087F68EB9EED1F0BC01F0FF0102F0070204
:1001E00032B110F8013B013A83EA010313B1F8D1AF
:1001F0000020704701387047002D06BF3546033890
:10020000073815F0010F07D1013015F4807F02BFC8
:10021000013015F4C03F0130F0BC0138704700BF19
:1002200053B94AB9002908BF00281CBF4FF0FF315D
:100230004FF0FF3000F070B9ADF1080C6DE904CE5D
:1002400000F006F8DDF804E0DDE9022304B07047B1
:100250002DE9F047089E0D4604460F46002B4AD173
:100260008A42944665D9B2FA82F343B102FA03FC9A
:10027000C3F120029F4020FA02F217439C404FEA4C
:100280001C4E1FFA8CF5B7FBFEF1220C0EFB11770A
:1002900042EA074201FB05F090420AD91CEB020238
:1002A00001F1FF3780F01B81904240F21881023942
:1002B0006244121AA4B2B2FBFEF00EFB102244EA12
:1002C000024400FB05F5A5420AD91CEB040400F129
:1002D000FF3280F00681A54240F203816444023877
:1002E00040EA0140641B00211EB1DC400023C6E946
:1002F0000043BDE8F0878B4208D9002E00F0EC8067
:100300000021C6E900050846BDE8F087B3FA83F18D
:10031000002949D1AB4202D3824200F2F780841A0D
:1003200065EB030201201746002EE2D0C6E9004724
:10033000DFE702B9FFDEB2FA82F3002B40F08F80D4
:100340008A1A4FEA1C471FFA8CFE0121B2FBF7F50F
:1003500007FB1520220C42EA00420EFB05F09042FA
:1003600008D91CEB020205F1FF3802D2904200F2DC
:10037000CA804546121AA4B2B2FBF7F007FB10225E
:1003800044EA02440EFB00FEA64508D91CEB040417
:1003900000F1FF3202D2A64500F2BA801046A4EB6B
:1003A0000E0440EA05409FE7C1F120078B4022FA86
:1003B00007FC4CEA030C05FA01F420FA07F3FD40B0
:1003C000234300FA01F94FEA1C401FFA8CFEB5FBEB
:1003D000F0F81C0C00FB185544EA054408FB0EF528
:1003E000A54202FA01F20BD91CEB040408F1FF3A12
:1003F00080F08780A54240F28480A8F1020864441E
:10040000641B9DB2B4FBF0F300FB134445EA0444C3
:1004100003FB0EFEA64508D91CEB040403F1FF30D4
:100420006BD2A64569D9023B644443EA0840A0FB6D
:100430000283A4EB0E049C42C6461D4655D352D0FF
:1004400056B1B9EB0E0364EB050404FA07F7CB4091
:10045000CC401F43C6E900740021BDE8F087C3F11A
:10046000200102FA03FC20FA01F225FA01F19D4075
:100470002A434FEA1C471FFA8CFEB1FBF7F007FB3B
:100480001015110C41EA054100FB0EF58D4204FAEE
:1004900003F408D91CEB010100F1FF382FD28D4283
:1004A0002DD902386144491B92B2B1FBF7F507FB25
:1004B000151142EA014205FB0EF1914208D91CEBED
:1004C000020205F1FF3816D2914214D9023D62446E
:1004D000521A45EA004139E73146304609E73946C4
:1004E000E7E61046FCE6C145AAD2B8EB020E63EB84
:1004F0000C050138A4E74546EAE7034695E7404680
:10050000D1E7D0467CE7023D624433E708460BE77B
:100510006444023843E700BF704700BF80B483B033
:1005200000AF786039607B68DB6823F003023B68CA
:100530001A437B68DA6000BF0C37BD4680BC704749
:1005400080B483B000AF78607B68DB6803F003039E
:1005500018460C37BD4680BC704780B483B000AFEE
:1005600078607B689B6823F0104323F0170343F007
:1005700080527B689A6000BF0C37BD4680BC7047D4
:1005800080B483B000AF78607B689B6823F0004341
:1005900023F0170343F001027B689A6000BF0C3719
:1005A000BD4680BC704780B483B000AF78607B6884
:1005B0009B6803F00103012B01D1012300E000231C
:1005C00018460C37BD4680BC704780B483B000AF7E
:1005D00078607B689B6803F00203022B01D1012342
:1005E00000E0002318460C37BD4680BC704780B43D
:1005F00083B000AF78607B689B6823F0004323F0F2
:10060000170343F000427B689A6000BF0C37BD4679
:1006100080BC704780B483B000AF78607B689B6813
:1006200003F00043B3F1004F01D1012300E00023A8
:1006300018460C37BD4680BC704780B483B000AF0D
:1006400078607B689B6823F0004323F0170343F036
:1006500004027B689A6000BF0C37BD4680BC7047BF
:1006600080B483B000AF78607B689B6803F00403BC
:10067000042B01D1012300E0002318460C37BD46AE
:1006800080BC704780B483B000AF78607B681B6C1F
:100690009BB218460C37BD4680BC704780B483B00F
:1006A00000AF78607B681B6803F00103012B01D168
:1006B000012300E0002318460C37BD4680BC70477C
:1006C00080B483B000AF78607B681B6803F00403DC
:1006D000042B01D1012300E0002318460C37BD464E
:1006E00080BC704780B483B000AF78607B68042220
:1006F0001A6000BF0C37BD4680BC704780B582B021
:1007000000AF00237B6000233B602848FFF74BFFCE
:100710000346002B45D12548FFF71FFF244B1B68DC
:100720009B09244AA2FB03239A0913469B00134406
:100730009B001A46204BA3FB0223DB087B6002E0F0
:100740007B68013B7B607B68002BF9D11748FFF782
:10075000F7FE03463B6000211448FFF7DFFE134815
:10076000FFF745FF00BF1148FFF754FF0346002B7A
:10077000F9D13B6819460D48FFF7D0FE20237B6076
:1007800002E07B68013B7B607B68002BF9D1074866
:10079000FFF7F6FE00BF0548FFF780FF0346002B7A
:1007A000F9D000BF0837BD4680BD00BF002401401E
:1007B0000C000020632D3E05CDCCCCCC80B500AF25
:1007C0001148FFF7F0FE0346012B0FD10E48FFF74B
:1007D000FCFE0346002B09D10B48FFF741FF0346FF
:1007E000002B03D10848FFF728FF01E001F050F982
:1007F00000BF0548FFF764FF0346002BF9D002480D
:10080000FFF770FF00BF80BD0024014080B500AF3E
:10081000FFF774FF1E4B4FF480521A80FFF7CEFF94
:100820001C48FFF72FFF03461A46194B1A801A4B34
:100830001A881A4B1B889A4220D0154B1B889BB2F2
:100840001A4640F6E44302FB03F39B08144AA2FB5A
:1008500003235B091A46114B1B88D31A642203FB3E
:1008600002F20D4B1B8819460C4B1B88CB1A92FBCE
:10087000F3F39BB21E339BB21BB201E047F6FF734A
:10088000084A1380074B1B881BB29BB2184680BDD9
:100890000000002000240140C875FF1FA875FF1F3D
:1008A0009F00EE09840000200FB480B582B000AF35
:1008B00007F114033B603B683A6964210A480CF075
:1008C0005FFA094800F014F878607B689AB24FF438
:1008D0007A730549054807F026F800BF0837BD467A
:1008E000BDE8804004B070478800002078020020F6
:1008F00080B485B000AF78600023FB6002E0FB6845
:100900000133FB607B685A1C7A601B78002BF6D1A0
:10091000FB6818461437BD4680BC704780B485B06C
:1009200000AF0346FB800023FB730A4B1B680022C9
:100930005A6202E0FB7B0133FB73064B1B685A6A69
:10094000FB889A42F6D300BF00BF1437BD4680BC77
:10095000704700BF34050020B0B58EB000AF78609E
:1009600039609E2387F83330786800F015F901204C
:10097000FFF7D4FF07F133014FF496730122786833
:1009800004F0CEFF07F108014FF47A73142278685F
:1009900005F056F90120FFF7C1FF786800F00DF966
:1009A0004FF4FA70FFF7BAFF3B7A3B777B7A7B779D
:1009B000BB7ABB77FB7AFB773B7B87F820307B7B6E
:1009C00087F8213006237B630DE007F108027B6B7B
:1009D0001344197807F122027B6B13440A461A70FC
:1009E0007B6B01337B637B6B132BEEDD3B681D461A
:1009F00007F11C040FCC28606960AA60EB602068D6
:100A0000286100BF3837BD46B0BD80B586B000AFA5
:100A1000F860B9607A607B800223FB753AE0BB68BE
:100A20001B0CDBB23B75BB681B0ADBB27B75BB687A
:100A3000DBB2BB75F86800F063F8F86800F0ACF85A
:100A40000120FFF76BFF07F1170164230122F8680B
:100A500004F066FF07F11401C8230322F86804F0CC
:100A60005FFFC8234FF480727968F86804F058FF7C
:100A7000F86800F0A2F80520FFF750FF7B88A3F587
:100A800080737B807B6803F580737B60BB6803F5B4
:100A90008073BB607B88B3F5807FC0D8BB681B0CBC
:100AA000DBB23B75BB681B0ADBB27B75BB68DBB294
:100AB000BB75F86800F024F8F86800F06DF80120C4
:100AC000FFF72CFF07F1170164230122F86804F0F7
:100AD00027FF07F11401C8230322F86804F020FF60
:100AE0007A88C8237968F86804F01AFFF86800F07B
:100AF00064F80520FFF712FF00BF1837BD4680BD20
:100B000080B584B000AF78600623FB73786800F08E
:100B100043F80120FFF702FF07F10F014FF4FA73CA
:100B20000122786804F0FCFE786800F046F80A209C
:100B3000FFF7F4FE00BF1037BD4680BD80B586B01C
:100B400000AFF860B9607A607B8003233B75BB68B7
:100B50001B0CDBB27B75BB681B0ADBB2BB75BB68C9
:100B6000DBB2FB75F86800F017F807F11401642395
:100B70000422F86804F0D4FE7A88C8237968F868FB
:100B800005F05EF8F86800F018F80520FFF7C6FEDB
:100B900000BF1837BD4680BD80B582B000AF786019
:100BA000002201214FF0904002F07AFF0120FFF770
:100BB000B5FE00BF0837BD4680BD80B582B000AF2E
:100BC0007860012201214FF0904002F069FF01207E
:100BD000FFF7A4FE00BF0837BD4680BD80B485B0D6
:100BE00000AF78604FF0B0439A6C4FF0B0417B6833
:100BF00013438B644FF0B0439A6C7B681340FB60E7
:100C0000FB6800BF1437BD4680BC704780B485B018
:100C100000AF78604FF0B043DA6C4FF0B0417B68C2
:100C20001343CB644FF0B043DA6C7B681340FB6036
:100C3000FB6800BF1437BD4680BC7047B0B590B0AC
:100C400002AF002387F83730544B187A534B597A48
:100C5000524B9C7A514BDD7A504B1B7B4F4A527B57
:100C6000019200932B46224601F058F817E0FFF757
:100C7000CDFD0346002B0AD0FFF7C8FD03461A46F8
:100C800097F83730D2B238333B4403F8382C0A2077
:100C9000FFF744FE97F83730013387F8373097F87D
:100CA00037301D2BE3D901F07FF83D4BBA221A7083
:100CB0003B4B01225A703B4B1A78394B9A703A4B96
:100CC000DA78374BDA70384B5A78354B1A71364B25
:100CD0001A78334B5A71354B1A78314B9A71334B22
:100CE0005A782F4BDA71314B9A782D4B1A720023B8
:100CF0003B630923FB6212E0294AFB6A1344DA22B0
:100D00001A70FB6A013339463A6B0A441178244A57
:100D1000D1543B6B01333B63FB6A0233FB62FB6ADA
:100D20001C2BE9DD00237B8500237B620AE01C4A43
:100D30007B6A13441B789AB27B8D13447B857B6A54
:100D400001337B627B6A1C2BF1DD7B8D1B0A9BB21E
:100D5000DAB2134B5A777B8DDAB2114B9A77104B7C
:100D6000FE22DA771248FFF79FFD00233B620AE07C
:100D70000B4A3B6A13441B7819460E48FFF794FD53
:100D80003B6A01333B623B6A1F2BF1DD0A48FFF7E8
:100D90008BFD00BF3837BD46B0BD00BFF405002055
:100DA0009C05002081050020380600202406002034
:100DB000B8D60008D8D60008DCD6000880B582B0C6
:100DC00000AF304BBA221A702F4B1B681B0EDAB2E1
:100DD0002C4B5A702C4B1B681B0CDAB2294B9A70A7
:100DE000294B1B681B0ADAB2264BDA70264B1B68AC
:100DF000DAB2244B1A71254B1B681B0EDAB2214B59
:100E00005A71224B1B681B0CDAB21E4B9A711F4B96
:100E10001B681B0ADAB21B4BDA711C4B1B68DAB277
:100E2000184B1A72174BFE225A724FF47A730A2229
:100E30001449174806F077FD1648FFF735FD0023E3
:100E40007B600AE00F4A7B6813441B7819461248FE
:100E5000FFF72AFD7B6801337B607B68092BF1DD9E
:100E60000E48FFF721FD0E4B1B7819460D48FFF782
:100E70001BFD0A22002103480BF090FF00BF08373A
:100E8000BD4680BDDC0500200800002008060020CB
:100E9000E4010020E0D6000800D70008DCD60008F6
:100EA0008105002004D7000880B582B000AF304B28
:100EB000BA221A702F4B1B681B0EDAB22C4B5A70D9
:100EC0002C4B1B681B0CDAB2294B9A70294B1B6800
:100ED0001B0ADAB2264BDA70264B1B68DAB2244BB7
:100EE0001A71254B1B681B0EDAB2214B5A71224B2B
:100EF0001B681B0CDAB21E4B9A711F4B1B681B0A36
:100F0000DAB21B4BDA711C4B1B68DAB2184B1A723F
:100F1000174BFE225A721948FFF7C6FC4FF47A733A
:100F20000A221349164806F0FEFC1648FFF7BCFCDF
:100F300000237B600AE00E4A7B6813441B78194645
:100F40001148FFF7B1FC7B6801337B607B68092B9C
:100F5000F1DD0E48FFF7A8FC0D48FFF7A5FC0A22BB
:100F6000002103480BF01AFF00BF0837BD4680BDC3
:100F7000E8050020040000200806002044D70008EF
:100F8000E401002064D7000800D70008DCD6000880
:100F900084D7000880B588B000AF78607B68564A77
:100FA000934240F0A5800023FB830023BB610AE04D
:100FB000524ABB6913441B789AB2FB8B1344FB83E0
:100FC000BB690133BB61BB691C2BF1DDFB8B1B0AC9
:100FD0009BB2DBB23B73FB8BDBB27B733A7B484B40
:100FE0005B7F9A426BD17A7B454B9B7F9A4266D15D
:100FF00044494548FFF7B0FC0120FFF78FFC434B05
:101000001B68434A1360424B1B6819464148FFF76F
:101010004BFC3F4B19682023394A3B48FFF7F5FC4E
:101020000120FFF77BFC3A4B1B6819463A48FFF753
:101030003BFC3A48FFF738FC354B196820232F4A10
:101040003148FFF77BFD0120FFF768FC00237B613F
:101050000AE02A4A7B6913441B7819463048FFF797
:1010600023FC7B6901337B617B691F2BF1DD2D48FC
:10107000FFF71AFC254B1B682033244A13602A4BC8
:101080001B780133DAB2284B1A70FFF797FE202243
:1010900000211B480BF082FE2022002117480BF094
:1010A0007DFE0F22002121480BF078FE40F2E73050
:1010B000FFF734FC40F2E730FFF730FC18E01C4843
:1010C000FFF7F2FB00233B610AE00C4A3B69134443
:1010D0001B7819461248FFF7E7FB3B6901333B6178
:1010E0003B691F2BF1DD0F48FFF7DEFB00F0D0FC62
:1010F00000BF2037BD4680BD50010020BC05002048
:101100009C05002084050020C4040020080600205F
:1011100098050020C0D70008E0D7000814D80008C0
:10112000D8D60008DCD6000881050020F405002090
:1011300028D80008B0B592B004AF01F089FA00F0E9
:1011400033F900F017FC00F0EBFB00F095FA0BF020
:101150007AFA00F045FA00F08FFB00F0F5F900F0A4
:10116000D7FA00F089F900F037FB744806F004F96B
:101170007348FFF799FB01E000F092FC714B1B787C
:10118000002BF9D07048FFF78FFB704B00221A70CC
:101190000BF061FA6B4B1B78012BF9D16C48FFF710
:1011A00083FB00F02BFD0120FFF7B8FB00F07EFD74
:1011B0000120FFF7B3FB674B1B7819466648FFF722
:1011C00073FB664B1B6819466548FFF76DFB654B63
:1011D0001B7A1846634B5B7A1C46624B9B7A1D4612
:1011E000604BDB7A1A465F4B1B7B19465D4B5B7B82
:1011F0000293019100922B46224601465A48FFF77E
:1012000053FBFFF71BFD012387F82430202387F8C9
:10121000353008237B86012387F83430012387F893
:101220003630002387F8373001233B72022387F8DA
:1012300021300A2387F82030042387F82230002346
:1012400087F82330494809F0B5FF002100200AF053
:101250001DFE2021464809F0FFFF07F12403184630
:101260000AF076FD434A3B4692E8030083E8030018
:101270003B4618460AF035F840F2FF100AF080F8B5
:101280003D480AF059FB01230022072104200AF0FF
:10129000D5FA0622162102200AF0BAFB07F108034C
:1012A00018460AF083FC0023002240F20F2140F28E
:1012B0000F200AF0E5FA3148FFF7F6FA3048FFF759
:1012C000F3FA2D492F48FFF7EFFA16230093002376
:1012D000072204212C48FFF7E7FA97F82130194636
:1012E0002A48FFF7E1FA97F8243019462848FFF713
:1012F000DBFA97F8353019462648FFF7D5FA7B8E8A
:1013000019462548FFF7D0FA97F834301946234894
:10131000FFF7CAFA2248FFF7C7FA2248FFF7C4FAD4
:1013200015480AF009FB012102200AF04DFF0022B6
:1013300020210F4809F0C2FF2AE700BF3405002032
:1013400044D800088005002070D8000881050020DE
:1013500098D8000803060020C4D80008080600201A
:10136000D8D80008F4050020F4D80008291A00088D
:101370009C050020CCDA0008400ECF191CD90008CB
:1013800050D900086CD9000880D90008E0D90008BD
:10139000FCD9000814DA00082CDA000844DA000846
:1013A00058DA000890DA000880B59AB000AF07F16B
:1013B00020034822002118460BF0F0FC3B1D0022C0
:1013C0001A605A609A60DA601A615A619A61294B10
:1013D0001B6823F4C063274A43F400731360254B52
:1013E0001B6803F4C0633B603B680B233B624FF414
:1013F00004137B624FF480733B6340237B630023C1
:10140000FB630023BB620123BB630223FB64032352
:101410003B6510237B650623BB654FF40033FB65FA
:101420004FF000537B664FF000733B6607F12003DB
:10143000184602F01FFE0346002B01D000F028FBE7
:101440004F237B600323BB600023FB6000233B61D1
:1014500000237B610023FB613B1D0221184603F042
:101460008BF90346002B01D000F012FB00BF683758
:10147000BD4680BD0004005880B584B000AF3B1D60
:1014800000221A605A609A602C4B2D4A1A602B4B2E
:101490004FF080425A60294B00229A60274B00226D
:1014A000DA60264B00221A61244B04225A61234B36
:1014B00000221A76214B00225A76204B00229A767F
:1014C0001E4B0122DA611D4B002283F820201B4BAA
:1014D00000225A62194B00229A62184B002283F8AC
:1014E0002C20164B00221A63144B07225A63134B0D
:1014F00000229A63114B002283F83C200F4B0022FC
:10150000DA640E4801F012FA0346002B01D000F015
:10151000BFFA0C4B7B600023BB600023FB603B1DCC
:101520001946064801F096FB0346002B01D000F057
:10153000AFFA00BF1037BD4680BD00BFEC000020F1
:1015400000240140001000B080B500AF224B234AB8
:101550001A60214B4FF4E1325A601F4B00229A600F
:101560001D4B0022DA601C4B00221A611A4B0C2220
:101570005A61194B00229A61174B00221A62164BCE
:1015800000225A62144B00229A62134B00225A66C0
:10159000114806F078F90346002B01D000F078FAE4
:1015A00000210D4807F0A0FD0346002B01D000F0FC
:1015B0006FFA0021084807F0D5FD0346002B01D043
:1015C00000F066FA044807F057FD0346002B01D0EF
:1015D00000F05EFA00BF80BD500100200080004096
:1015E00080B500AF224B234A1A60214B4FF4E13201
:1015F0005A601F4B00229A601D4B0022DA601C4B80
:1016000000221A611A4B0C225A61194B00229A616E
:10161000174B0022DA61164B00221A62144B00228B
:101620005A62134B00229A62114806F02CF90346C5
:10163000002B01D000F02CFA00210D4807F054FDDA
:101640000346002B01D000F023FA0021084807F0E0
:1016500089FD0346002B01D000F01AFA044807F078
:101660000BFD0346002B01D000F012FA00BF80BD35
:10167000E40100200038014080B500AF224B234A2E
:101680001A60214B4FF4E1325A601F4B00229A60DE
:101690001D4B0022DA601C4B00221A611A4B0C22EF
:1016A0005A61194B00229A61174B0022DA61164BDE
:1016B00000221A62144B00225A62134B00229A62D3
:1016C000114806F0E0F80346002B01D000F0E0F9E5
:1016D00000210D4807F008FD0346002B01D000F063
:1016E000D7F90021084807F03DFD0346002B01D043
:1016F00000F0CEF9044807F0BFFC0346002B01D0F0
:1017000000F0C6F900BF80BD780200200044004010
:1017100080B586B000AF3B1D00221A605A609A6007
:10172000DA601A6100233B60294B2A4A1A60284B71
:1017300000225A60264B7F229A60254BFF22DA60F6
:10174000234B00221A61224B00225A61204B0022B7
:101750009A611F4B4FF08042DA611D4B00221A62E2
:101760001B4B00225A621A4803F0E0FC0346002B90
:1017700001D000F08DF900233B7100237B71002321
:10178000BB7100233B6100237B613B1D0122194695
:101790000F4803F04DFD0346002B01D000F078F90F
:1017A00001233B7001237B700123BB700023FB707E
:1017B0003B4601221946064803F038FE0346002B3B
:1017C00001D000F065F900BF1837BD4680BD00BFED
:1017D0008C0400200028004080B500AF1B4B1C4A41
:1017E0001A601A4B4FF482725A60184B00229A60AA
:1017F000164B4FF4E062DA60144B00221A61134B6F
:1018000000225A61114B4FF400729A610F4B38223B
:10181000DA610E4B00221A620C4B00225A620B4B0B
:1018200000229A62094B0722DA62084B00221A63EF
:10183000064B08225A63054803F09EFF0346002B1F
:1018400001D000F025F900BF80BD00BFC404002016
:101850000038004080B500AF064B10221A600548E2
:1018600005F012F90346002B01D000F011F900BF7A
:1018700080BD00BF2805002080B588B000AF07F10B
:10188000100300221A605A609A60DA603B1D002241
:101890001A605A609A60204B204A1A601E4B2F2211
:1018A0005A601D4B00229A601B4B40F2E732DA600F
:1018B000194B00221A61184B00225A61164B002264
:1018C0009A61154805F000FD0346002B01D000F099
:1018D000DFF84FF480533B6107F1100319460E48BF
:1018E00005F08EFD0346002B01D000F0D1F8002357
:1018F0007B600023BB600023FB603B1D194606484C
:1019000005F042FF0346002B01D000F0C1F800BFF4
:101910002037BD4680BD00BF34050020002C0140AB
:1019200080B500AF0420FFF759F90120FFF756F901
:10193000002200210B2001F09CFB0B2001F0B3FBE7
:10194000002200210C2001F094FB0C2001F0ABFBE5
:10195000002200210D2001F08CFB0D2001F0A3FBE3
:10196000002200210E2001F084FB0E2001F09BFBE1
:1019700000BF80BD80B586B000AF3B1D00221A605D
:101980005A609A60DA601A610120FFF73FF902207D
:10199000FFF73CF90420FFF739F900224FF42061EA
:1019A0001F4802F07DF8002238211E4802F078F826
:1019B0004FF420637B600123BB600023FB600223A4
:1019C0003B613B1D1946164801F00AFF38237B6036
:1019D0000123BB600023FB6003233B613B1D1946D1
:1019E000104801F0FDFE03237B604FF40413BB603D
:1019F0000123FB603B1D19464FF0904001F0F0FEC3
:101A000040237B604FF40413BB600123FB603B1D4C
:101A10001946044801F0E4FE00BF1837BD4680BDFA
:101A2000000400480008004880B584B000AF0346B9
:101A3000FB80FB88012B1BD10F48FEF735FF0023ED
:101A4000FB600AE00D4AFB6813441B7819460C48FA
:101A5000FEF72AFFFB680133FB60FB681F2BF1DDFB
:101A60000848FEF721FF20220749084806F0A6F89B
:101A700000BF1037BD4680BDD4DA00089C050020A9
:101A800004DB00080CDB0008BC050020500100202E
:101A900080B500AFFFF708FA72B600BFFEE700009E
:101AA00080B584B000AF394641F658330522484826
:101AB00005F0BFFF0346002B7ED14648FEF7F4FE3B
:101AC0000023FB600AE03A46FB6813441B78194682
:101AD0004148FEF7E9FEFB680133FB60FB68042B1D
:101AE000F1DD3E48FEF7E0FE0120FEF717FF3B78F0
:101AF000042B58D13B79FE2B55D13948FEF7D4FE43
:101B0000394641F658330522364805F00CFF0346A6
:101B1000002B57D1394641F658330522314805F09C
:101B200088FF0346002B4DD12F48FEF7BDFE002352
:101B3000BB600AE03A46BB6813441B781946264846
:101B4000FEF7B2FEBB680133BB60BB68042BF1DD5E
:101B50002248FEF7A9FE0120FEF7E0FE3B78042BA9
:101B600019D13B79FE2B16D11D48FEF79DFE394653
:101B700041F658330522164805F0D5FE0346002BE2
:101B800010D11A48FEF790FE194B01221A7001205D
:101B9000FEF7C4FE06E01748FEF786FE0120FEF7BA
:101BA000BDFE0FE00EE01448FEF77EFE0120FEF7BA
:101BB000B5FEFFF775FF06E00120FEF7AFFEFFF769
:101BC0006FFF00E000BF00BF1037BD4680BD00BF03
:101BD000E401002010DB00083CDB000840DB0008CB
:101BE00044DB00085001002060DB00088CDB0008AB
:101BF00080050020ACDB0008E0DB000880B582B087
:101C000000AF41F658330F222049214805F011FF5B
:101C10000346002B2ED11F48FEF746FE00237B60B3
:101C20000AE01A4A7B6813441B7819461A48FEF7E3
:101C30003BFE7B6801337B607B680E2BF1DD174830
:101C4000FEF732FE0120FEF769FE104B1B78012BD8
:101C500007D10E4B9B7BFE2B03D11148FEF724FED0
:101C600010E01048FEF720FE0120FEF757FEFFF7B8
:101C7000C5FF07E00C48FEF717FE0120FEF74EFEF9
:101C8000FFF7BCFF00BF0837BD4680BDF40500204C
:101C9000E401002008DC00082CDC000840DB000820
:101CA00030DC000858DC000884DC000880B500AF98
:101CB0001548FEF7F9FD154B1A78154B1A70134BA2
:101CC0001B781A06114B5B781B041A430F4B9B7849
:101CD0001B0213430D4AD27813431A460D4B1A6068
:101CE0000A4B1B791A06094B5B791B041A43074BF5
:101CF0009B791B021343054AD27913431A46064BBC
:101D00001A6000BF80BD00BFA0DC0008F405002001
:101D100003060020040600200806002090B583B0CA
:101D200000AF0446084611461A462346FB71034697
:101D3000BB710B467B7113463B71184A3B7913709C
:101D4000164A3B7E5370154A3B7F9370134B00221B
:101D5000DA60124B00221A6101221049104803F088
:101D600067FA0346002B01D0FFF792FE0D4ABB79BC
:101D700053700C4AFB79D3700A4A7B7913700122A5
:101D80000849074803F052FB0346002B01D0FFF738
:101D90007FFE00BF0C37BD4690BD00BF0C06002083
:101DA0008C0400202006002080B500AF00220549E9
:101DB000054803F0D9FA00220449034803F0BCFBAC
:101DC00000BF80BD240600208C04002038060020BF
:101DD00080B400AF4FF0B043D3F890304FF0B04232
:101DE00043F40043C2F8903000BFBD4680BC70474A
:101DF00080B485B000AF78604FF0B043DA6C4FF03C
:101E0000B0417B681343CB644FF0B043DA6C7B681E
:101E10001340FB60FB6800BF1437BD4680BC7047B1
:101E200080B485B000AF78604FF0B0439A6D4FF04A
:101E3000B0417B6813438B654FF0B0439A6D7B686C
:101E40001340FB60FB6800BF1437BD4680BC704781
:101E500080B485B000AF78604FF0B043DA6D4FF0DA
:101E6000B0417B681343CB654FF0B043DA6D7B68BC
:101E70001340FB60FB6800BF1437BD4680BC704751
:101E800080B485B000AF78604FF0B0431A6E4FF069
:101E9000B0417B6813430B664FF0B0431A6E7B680A
:101EA0001340FB60FB6800BF1437BD4680BC704721
:101EB00080B485B000AF78604FF0B0435A6E4FF0F9
:101EC000B0417B6813434B664FF0B0435A6E7B685A
:101ED0001340FB60FB6800BF1437BD4680BC7047F1
:101EE00080B400AF00BFBD4680BC704780B582B0F3
:101EF00000AF78607B681B68054A934203D14FF4BA
:101F00000070FFF7BDFF00BF0837BD4680BD00BFB2
:101F10000024014080B596B000AF786007F144031B
:101F200000221A605A609A60DA601A6107F10C03A5
:101F30003822002118460AF031FF7B681B68994A55
:101F4000934240F092802023FB600023FB6107F165
:101F50000C03184602F0D0FF0346002B01D0FFF718
:101F600097FD0120FFF774FF0420FFF741FF0323D3
:101F70007B640223BB640023FB6400233B650823CE
:101F80007B6507F144031946874801F029FC874B1C
:101F9000874A1A60854B15225A60844B00229A604A
:101FA000824B0022DA60814B80221A617F4B002233
:101FB0005A617E4B00229A617C4B0022DA617B4B96
:101FC00000221A62794801F089F80346002B01D0FB
:101FD000FFF75EFD1021754801F02AFB0346002B38
:101FE00001D0FFF755FD7B68704AC3F880206F4A27
:101FF0007B6893626F4B704A1A606E4B16225A6070
:102000006C4B10229A606B4B0022DA60694B802285
:102010001A61684B00225A61664B00229A61654B37
:102020000022DA61634B00221A62624801F056F81E
:102030000346002B01D0FFF72BFD10215D4801F076
:10204000F7FA0346002B01D0FFF722FD7B68594ABF
:10205000DA67584A7B68936200220021262001F04B
:1020600008F8262001F01FF8DEE07B681B68534A61
:10207000934240F0AD800123FB604FF440333B615D
:1020800007F10C03184602F037FF0346002B01D07E
:10209000FFF7FEFC4FF48040FFF7F2FE0120FFF750
:1020A000A7FE4FF4C0637B640223BB640023FB6480
:1020B00000233B6507237B6507F1440319464FF076
:1020C000904001F08DFB3E4B3E4A1A603C4B112282
:1020D0005A603B4B00229A60394B0022DA60384B41
:1020E00080221A61364B00225A61354B00229A61D8
:1020F000334B0022DA61324B00221A62304800F082
:10210000EDFF0346002B01D0FFF7C2FC10212C4845
:1021100001F08EFA0346002B01D0FFF7B9FC7B6873
:10212000274AC3F88020264A7B689362264B274AB9
:102130001A60254B12225A60234B10229A60224BC0
:102140000022DA60204B80221A611F4B00225A6164
:102150001D4B00229A611C4B0022DA611A4B0022AF
:102160001A62194800F0BAFF0346002B01D0FFF7AE
:102170008FFC1021144801F05BFA0346002B01D0BC
:10218000FFF786FC7B68104ADA670F4A7B68936228
:1021900000220021242000F06CFF242000F083FFA7
:1021A00042E000BF00800040000800480C0300200F
:1021B000300002406C03002044000240003801401F
:1021C000CC030020080002402C0400201C00024028
:1021D0007B681B68164A934226D10223FB604FF4AA
:1021E00040237B6107F10C03184602F085FE03468D
:1021F000002B01D0FFF74CFC4FF40030FFF710FE2E
:102200000120FFF7F5FD0C237B640223BB64002350
:10221000FB6400233B6507237B6507F144031946F4
:102220004FF0904001F0DCFA00BF5837BD4680BD4A
:102230000044004080B590B000AF786007F108031B
:102240003822002118460AF0A9FD7B681B680E4A57
:10225000934215D14FF48033BB604FF40073FB639E
:1022600007F10803184602F047FE0346002B01D091
:10227000FFF70EFCFFF7ACFD4FF48060FFF7D0FDD9
:1022800000BF4037BD4680BD0028004080B596B0F5
:1022900000AF786007F1440300221A605A609A6028
:1022A000DA601A6107F10C033822002118460AF09F
:1022B00075FD7B681B68174A934226D11023FB608B
:1022C0004FF40073BB6107F10C03184602F014FED3
:1022D0000346002B01D0FFF7DBFB4FF48040FFF7F4
:1022E0009FFD0220FFF784FD4FF460437B640223CF
:1022F000BB640023FB6400233B6505237B6507F17A
:1023000044031946044801F06BFA00BF5837BD4634
:1023100080BD00BF003800400004004880B582B096
:1023200000AF78600120FFF7C3FD002200213220BA
:1023300000F09FFE322000F0B6FE00BF0837BD4619
:1023400080BD000080B582B000AF78607B681B68FC
:10235000054A934203D14FF40060FFF791FD00BF9F
:102360000837BD4680BD00BF002C014080B400AFDF
:10237000FEE780B400AFFEE780B400AFFEE780B4B4
:1023800000AFFEE780B400AFFEE780B400AF00BF4F
:10239000BD4680BC704780B400AF00BFBD4680BC66
:1023A000704780B400AF00BFBD4680BC704780B5A9
:1023B00000AF00F0A7F900BF80BD000080B500AFFE
:1023C000024801F06FF800BF80BD00BFCC030020C1
:1023D00080B500AF024801F065F800BF80BD00BFC6
:1023E0002C04002080B500AF024801F05BF800BF6C
:1023F00080BD00BF0C03002080B500AF024801F093
:1024000051F800BF80BD00BF6C03002080B500AF55
:10241000024805F01FFC00BF80BD00BFE4010020A2
:1024200080B500AF024805F015FC00BF80BD00BFBD
:102430005001002080B500AF024804F0A7FD00BFA6
:1024400080BD00BF2805002080B400AF00BFBD469E
:1024500080BC704780B582B000AF00237B60064B24
:102460001B78002B02D000F092F878607B68184649
:102470000837BD4680BD00BF3C06002080B582B055
:1024800000AF78607B68184600F0AFF800BF0837EF
:10249000BD4680BD80B586B000AF7860144A154B4C
:1024A000D31A7B617B693B61134B1B68002B02D104
:1024B000114B124A1A60104B1A687B6813443A6930
:1024C0009A4207D20AF072FC03460C221A604FF0BF
:1024D000FF3309E0084B1B68FB60074B1A687B68F9
:1024E0001344054A1360FB6818461837BD4680BD83
:1024F00000000120000400004006002058090020D0
:1025000080B400AF00BFBD4680BC704780B483B0CC
:1025100000AF0023FB71FB7918460C37BD4680BC29
:10252000704780B485B000AF78600023FB73FB7BFD
:1025300018461437BD4680BC704780B483B000AFE6
:102540000023FB71FB7918460C37BD4680BC7047F1
:1025500080B400AF024B1B681846BD4680BC704774
:102560004406002080B400AF024B1B681846BD46ED
:1025700080BC70474406002080B483B000AF0023C5
:102580007B607B6818460C37BD4680BC704780B4C2
:1025900083B000AF00237B607B6818460C37BD46D4
:1025A00080BC704780B483B000AF00237B607B6841
:1025B00018460C37BD4680BC704780B485B000AF6C
:1025C00078600023FB60FB6818461437BD4680BC6A
:1025D000704780B485B000AF78600023FB60FB6873
:1025E00018461437BD4680BC704780B483B000AF36
:1025F000786000BF0C37BD4680BC70470D488546EB
:10260000FFF77EFF0C480D490D4A002302E0D45825
:10261000C4500433C4188C42F9D30A4A0A4C00232C
:1026200001E013600432A242FBD30AF0C5FBFEF7BF
:1026300081FDFEE70000012000000020680000206E
:1026400084DF00086800002054090020FEE7000035
:1026500080B582B000AF0023FB71032000F0FEFCC8
:1026600002F06CFA0346094A1360002000F010F8EB
:102670000346002B02D00123FB7101E0FFF730FC81
:10268000FB7918460837BD4680BD00BF0C0000200E
:1026900080B584B000AF78600023FB73174B1B78C4
:1026A000002B24D002F04AFA0246144B1B7819463C
:1026B0004FF47A73B3FBF1F3B2FBF3F3184600F077
:1026C00000FD0346002B0FD17B680F2B09D8002299
:1026D00079684FF0FF3000F0CCFC094A7B6813604A
:1026E00007E00123FB7304E00123FB7301E00123F6
:1026F000FB73FB7B18461037BD4680BD14000020DD
:102700001000002080B400AF054B1B781A46054B23
:102710001B681344034A136000BFBD4680BC70476A
:10272000140000204806002080B483B000AF786019
:1027300039607B681B6823F0E0723B681A437B6852
:102740001A6000BF0C37BD4680BC704780B483B0B0
:1027500000AF78607B681B6803F0E07318460C37A5
:10276000BD4680BC704780B485B000AFF860B960EA
:102770007A60FB685A69BB6803F00403072101FA19
:1027800003F3DB431A40BB6803F00403796801FAE2
:1027900003F31A43FB685A6100BF1437BD4680BC7F
:1027A000704780B483B000AF786039607B685A6945
:1027B0003B6803F00403072101FA03F31A403B6866
:1027C00003F0040322FA03F318460C37BD4680BC1D
:1027D000704780B485B000AFF860B9607A60FB687C
:1027E0009A6ABB6803F01F030F2101FA03F3DB436E
:1027F0001A407B689B0E03F00F01BB6803F01F03B8
:1028000001FA03F31A43FB689A6200BF1437BD460E
:1028100080BC704780B483B000AF786039607B685B
:102820009A6A3B68C3F311031A437B689A6200BF3C
:102830000C37BD4680BC704780B483B000AF786071
:1028400039607B689A6A3B68C3F31103DB431A4023
:102850007B689A6200BF0C37BD4680BC704780B46D
:1028600085B000AFF860B9607A60FB685A69BB68F0
:102870001B02DB431A40BB6819027B680B4023F044
:102880007C4323F0FF031A43FB685A6100BF1437EF
:10289000BD4680BC704780B483B000AF78607B6871
:1028A0009B6823F0104323F0170343F080527B68AA
:1028B0009A6000BF0C37BD4680BC704780B483B0BF
:1028C00000AF78607B689B6803F08053B3F1805F52
:1028D00001D1012300E0002318460C37BD4680BC1F
:1028E000704780B483B000AF78607B689B6803F06A
:1028F0000103012B01D1012300E0002318460C370E
:10290000BD4680BC704780B483B000AF78607B6800
:102910009B6803F00403042B01D1012300E0002392
:1029200018460C37BD4680BC7047000080B588B0A3
:1029300000AF78600023FB770023BB6100237B613D
:102940000023FB607B68002B01D101237EE17B68C3
:102950001B69002B7B689B6D002B09D17868FFF702
:10296000C5FA7B680022DA657B68002283F8542070
:102970007B681B681846FFF7A1FF0346002B15D1A3
:102980007B681B681846FFF786FF9E4B1B689B09F8
:102990009D4AA2FB03239B0901335B00FB6002E01D
:1029A000FB68013BFB60FB68002BF9D17B681B686F
:1029B0001846FFF783FF0346002B0DD17B689B6D04
:1029C00043F010027B689A657B68DB6D43F001027F
:1029D0007B68DA650123FB777B681B681846FFF785
:1029E00092FF38617B689B6D03F01003002B40F071
:1029F00024813B69002B40F020817B689B6D23F490
:102A0000817343F002027B689A657B681B681846F5
:102A1000FFF767FF0346002B40F0A7807B689A68AA
:102A20007B681B7E9B031A437B685B7EDB031A4338
:102A30007B689B7E5B0313437A68126B002A02D08B
:102A40004FF4805200E000221A437B68DB681A438F
:102A50007B681B69002B04DA7B681B6923F0004349
:102A600001E04FF400131A437B6893F82C305B00AD
:102A70001343BA691343BB617B6893F82030012B81
:102A800014D17B689B7E002B04D1BB6943F4803357
:102A9000BB610BE07B689B6D43F020027B689A650D
:102AA0007B68DB6D43F001027B68DA657B685B6AFB
:102AB000002B09D07B685B6A03F4E0727B689B6A39
:102AC0001343BA691343BB617B681B68DB6823F45B
:102AD000FE3323F4FF737A681268B9690B43D3603D
:102AE0007B685B6803F040427B68DB6C13437A6968
:102AF00013437B617B6893F83C30012B11D17B68D9
:102B00005B6803F040427B681B6C1A437B685B6C1C
:102B10001A437B689B6C1A437B69134343F00103A0
:102B20007B617B681B681A69384B13407A681268AE
:102B300079690B4313617B685B68B3F1404F14D034
:102B40007B685B68B3F1804F0FD07B685B68B3F143
:102B5000004F0AD02E4B1B6823F470127B685B6811
:102B600003F470132A4913430B607B6818687B6871
:102B70005B6B1A460021FFF7F6FD7B6818687B68DF
:102B80009B6B1A462349FFF7EEFD7B681B69002B00
:102B900008D17B681B689A6A7B681B6862F00F0229
:102BA0009A6217E07B681B69B3F5001F12D17B683E
:102BB0001B689B6A7B68DB69013B9B0003F01C037D
:102BC0006FF00F0202FA03F17B681A6E7B681B68D4
:102BD0000A439A627B681B6800211846FFF7E1FDF3
:102BE00002467B685B6B9A4216D17B680022DA65ED
:102BF0007B689B6D23F0030343F001027B689A65B9
:102C000023E000BF0C000020632D3E0502FCFF1FE7
:102C10000827014004FFFF037B689B6D23F012032C
:102C200043F010027B689A657B68DB6D43F001021C
:102C30007B68DA650123FB7707E07B689B6D43F0D7
:102C400010027B689A650123FB77FB7F18462037CB
:102C5000BD4680BD80B588B000AF78603960002384
:102C6000FB770023BB607B681B69B3F1004F7B6877
:102C700093F85430012B01D1022310E17B6801222B
:102C800083F854207B681B681846FFF73CFE034618
:102C9000002B40F0F7803B685B68022B00F0B180AE
:102CA0007B681B69B3F1004F04D07B681B697E4AC7
:102CB000934208D17B681A683B681B681946104626
:102CC000FFF7A8FD41E07B681A6E3B685B6803F084
:102CD0001F030F2101FA03F3DB431A403B681B6813
:102CE000C3F31103002B05D13B681B689B0E03F057
:102CF0001F0311E03B681B683B613B6993FAA3F338
:102D0000FB60FB687B617B69002B01D1202303E022
:102D10007B69B3FA83F3DBB23968496801F01F01BC
:102D20008B401A437B681A663B685B689B085A1C99
:102D30007B68DB699A4208D87B6818683B685968E9
:102D40003B681B681A46FFF744FD7B6818683B68C0
:102D500019683B689B681A46FFF781FD3B681B6852
:102D6000002B80F297805148FFF7F0FCB8613B6878
:102D70001B684F4A934220D1BB6903F40003002B28
:102D80001BD1BB6943F4000319464848FFF7CCFC4C
:102D9000484B1B689B09484AA2FB03239B095A1C0A
:102DA00013465B0013449B00BB6002E0BB68013B21
:102DB000BB60BB68002BF9D16CE03B681B683F4AE5
:102DC00093420CD1BB6903F08073002B07D1BB6920
:102DD00043F0807319463548FFF7A6FC5AE03B687C
:102DE0001B68374A934255D1BB6903F48003002B1B
:102DF00050D1BB6943F4800319462C48FFF794FC7B
:102E000048E07B681B69B3F1004F04D07B681B6905
:102E1000254A934207D17B681A683B681B681946AC
:102E20001046FFF709FD3B681B68002B32DA1F488C
:102E3000FFF78CFCB8613B681B681D4A934207D1C1
:102E4000BB6923F4000319461848FFF76DFC21E025
:102E50003B681B68194A934207D1BB6923F0807312
:102E600019461248FFF760FC14E03B681B68144ADF
:102E700093420FD1BB6923F4800319460B48FFF737
:102E800053FC07E07B689B6D43F020027B689A65EA
:102E90000123FB777B68002283F85420FB7F1846D0
:102EA0002037BD4680BD00BF0400008008270140D8
:102EB000001000B00C000020632D3E05004000B85B
:102EC000002000B480B485B000AF78607B6803F068
:102ED0000703FB600C4BDB68BB60BA684FF6FF036F
:102EE0001340BB60FB681A02BB68134343F0BF6327
:102EF00043F40033BB60044ABB68D36000BF14379F
:102F0000BD4680BC704700BF00ED00E080B400AF5C
:102F1000044BDB681B0A03F007031846BD4680BC60
:102F2000704700BF00ED00E080B483B000AF0346FF
:102F3000FB7197F90730002B0BDBFB7903F01F02C5
:102F4000064997F907305B09012000FA02F241F8BF
:102F5000232000BF0C37BD4680BC704700E100E075
:102F600080B483B000AF03463960FB7197F9073036
:102F7000002B0ADB3B68DAB20C4997F907301201E3
:102F8000D2B20B4483F800230AE03B68DAB2084966
:102F9000FB7903F00F03043B1201D2B20B441A7603
:102FA00000BF0C37BD4680BC704700BF00E100E0A9
:102FB00000ED00E080B489B000AFF860B9607A60DD
:102FC000FB6803F00703FB61FB69C3F10703042BF4
:102FD00028BF0423BB61FB690433062B02D9FB69BC
:102FE000033B00E000237B614FF0FF32BB6902FA34
:102FF00003F3DA43BB681A407B699A404FF0FF3114
:103000007B6901FA03F3D9437B680B4013431846ED
:103010002437BD4680BC704780B582B000AF786071
:103020007B68013BB3F1807F01D301230FE00A4AA3
:103030007B68013B53600F214FF0FF30FFF790FF9B
:10304000054B00229A60044B07221A6000231846A1
:103050000837BD4680BD00BF10E000E080B582B0FB
:1030600000AF78607868FFF72DFF00BF0837BD46D6
:1030700080BD80B586B000AF0346B9607A60FB734F
:10308000FFF744FF78617A68B9687869FFF792FFC3
:10309000024697F90F3011461846FFF761FF00BF4F
:1030A0001837BD4680BD80B582B000AF0346FB71C6
:1030B00097F907301846FFF737FF00BF0837BD46BE
:1030C00080BD80B582B000AF78607868FFF7A4FF5C
:1030D000034618460837BD4680BD000080B582B063
:1030E00000AF78607B68002B01D101238EE07B6804
:1030F0001B681A46474B9A420FD87B681B681A46D2
:10310000454B1344454AA2FB03231B099A007B68E5
:103110005A647B68424A1A640EE07B681B681A4650
:10312000404B13443D4AA2FB03231B099A007B68D2
:103130005A647B683C4A1A647B68022283F8252023
:103140007B681B681B687A68126823F4FF4323F0CE
:10315000700313607B681B6819687B689A687B68DA
:10316000DB681A437B681B691A437B685B691A43F7
:103170007B689B691A437B68DB691A437B681B6A1F
:103180001A437B681B680A431A60786800F0BCFA2F
:103190007B689B68B3F5804F02D17B6800225A6040
:1031A0007B685A687B689B6C02F07F021A607B68C0
:1031B000DB6C7A68126D5A607B685B68002B10D0FC
:1031C0007B685B68042B0CD8786800F0E5FA7B68B4
:1031D0005B6D00221A607B689B6D7A68D26D5A60C5
:1031E00008E07B6800225A657B6800229A657B684C
:1031F0000022DA657B680022DA637B68012283F8AB
:1032000025207B68002283F82420002318460837F5
:10321000BD4680BD07040240F8FFFDBFCDCCCCCC3D
:1032200000000240F8FBFDBF0004024080B586B0FC
:1032300000AFF860B9607A603B600023FB75FB6803
:1032400093F82430012B01D1022369E0FB680122AD
:1032500083F82420FB6893F82530DBB2012B55D18D
:10326000FB68022283F82520FB680022DA63FB68F2
:103270001B681A68FB681B6822F001021A603B6831
:103280007A68B968F86800F002FAFB681B6B002BDB
:1032900008D0FB681B681A68FB681B6842F00E02C6
:1032A0001A600FE0FB681B681A68FB681B6822F055
:1032B00004021A60FB681B681A68FB681B6842F00E
:1032C0000A021A60FB689B6C1B6803F48033002BB6
:1032D00007D0FB689B6C1A68FB689B6C42F4807299
:1032E0001A60FB685B6D002B07D0FB685B6D1A688A
:1032F000FB685B6D42F480721A60FB681B681A6899
:10330000FB681B6842F001021A6008E0FB6880223B
:10331000DA63FB68002283F824200123FB75FB7D20
:1033200018461837BD4680BD80B483B000AF7860C2
:103330007B68002B01D101234FE07B6893F8253097
:10334000DBB2022B08D07B680422DA637B680022A0
:1033500083F82420012340E07B681B681A687B689F
:103360001B6822F00E021A607B689B6C1A687B68EF
:103370009B6C22F480721A607B681B681A687B68F9
:103380001B6822F001021A607B685B6C03F01C0270
:103390007B681B6C012101FA02F25A607B68DB6CCE
:1033A0007A68126D5A607B685B6D002B0CD07B686D
:1033B0005B6D1A687B685B6D22F480721A607B68B3
:1033C0009B6D7A68D26D5A607B68012283F8252054
:1033D0007B68002283F82420002318460C37BD4662
:1033E00080BC704780B584B000AF78600023FB7369
:1033F0007B6893F82530DBB2022B05D07B68042272
:10340000DA630123FB7347E07B681B681A687B68FB
:103410001B6822F00E021A607B681B681A687B68C2
:103420001B6822F001021A607B689B6C1A687B683B
:103430009B6C22F480721A607B685B6C03F01C0248
:103440007B681B6C012101FA02F25A607B68DB6C1D
:103450007A68126D5A607B685B6D002B0CD07B68BC
:103460005B6D1A687B685B6D22F480721A607B6802
:103470009B6D7A68D26D5A607B68012283F82520A3
:103480007B68002283F824207B689B6B002B03D091
:103490007B689B6B78689847FB7B18461037BD4666
:1034A00080BD000080B584B000AF78607B681B6C85
:1034B0001B68FB607B681B681B68BB607B685B6C80
:1034C00003F01C0304229A40FB681340002B27D012
:1034D000BB6803F00403002B22D07B681B681B68C9
:1034E00003F02003002B07D17B681B681A687B68F8
:1034F0001B6822F004021A607B685B6C03F01C02FC
:103500007B681B6C042101FA02F25A607B681B6B1A
:10351000002B00F081807B681B6B786898477BE00C
:103520007B685B6C03F01C0302229A40FB6813402B
:10353000002B3DD0BB6803F00203002B38D07B6822
:103540001B681B6803F02003002B0BD17B681B68F2
:103550001A687B681B6822F00A021A607B680122E5
:1035600083F825207B681B681A462E4B9A4209D99E
:103570007B685B6C03F01C032B4A022101FA03F306
:10358000536008E07B685B6C03F01C03274A022150
:1035900001FA03F353607B68002283F824207B68E0
:1035A000DB6A002B38D07B68DB6A7868984733E0A9
:1035B0007B685B6C03F01C0308229A40FB68134095
:1035C000002B2AD0BB6803F00803002B25D07B68B2
:1035D0001B681A687B681B6822F00E021A607B6801
:1035E0005B6C03F01C027B681B6C012101FA02F288
:1035F0005A607B680122DA637B68012283F8252008
:103600007B68002283F824207B685B6B002B04D04E
:103610007B685B6B7868984700BF00BF1037BD467A
:1036200080BD00BF80000240000402400000024054
:1036300080B485B000AF786039600023FB727B688E
:10364000002B03D10123FB72FB7A1BE07B681B6814
:103650001B68FB603B6803F01003002B0DD03B6838
:1036600003F48013002B04D0FB6843F48013FB6049
:1036700003E0FB6823F48013FB607B681B68FA6837
:103680001A60FB7A18461437BD4680BC704780B478
:1036900085B000AFF860B9607A603B60FB68DB6CB6
:1036A000FA68126D5A60FB685B6D002B04D0FB68F2
:1036B0009B6DFA68D26D5A60FB685B6C03F01C026C
:1036C000FB681B6C012101FA02F25A60FB681B685F
:1036D0003A685A60FB689B68102B08D1FB681B682E
:1036E0007A689A60FB681B68BA68DA6007E0FB6872
:1036F0001B68BA689A60FB681B687A68DA6000BF6A
:103700001437BD4680BC704780B485B000AF786088
:103710007B681B681A461C4B9A4213D87B685B6C0B
:103720009B089B0003F1804303F502337A6893649E
:103730007B681B68DBB2083B144AA2FB03231B090E
:10374000FB6011E07B685B6C9B089A00104B134494
:103750007A6893647B681B68DBB2083B0B4AA2FB68
:1037600003231B090733FB607B680A4ADA64FB68A2
:1037700003F01F0301229A407B681A6500BF1437CB
:10378000BD4680BC704700BF07040240CDCCCCCC06
:103790001C0802408008024080B485B000AF786009
:1037A0007B685B6803F07F03FB60FA680A4B134495
:1037B0009B001A467B685A657B68084A9A65FB68D5
:1037C000013B03F0030301229A407B68DA6500BFE6
:1037D0001437BD4680BC70473F820010400902404C
:1037E00080B487B000AF7860396000237B6140E12E
:1037F0003B681A6801217B6901FA03F31340FB60FF
:10380000FB68002B00F032813B685B6803F0030328
:10381000012B05D03B685B6803F00303022B30D11A
:103820007B689B683B617B695B00032202FA03F3C0
:10383000DB433A6913403B613B68DA687B695B00B4
:1038400002FA03F33A6913433B617B683A699A6071
:103850007B685B683B6101227B6902FA03F3DB430F
:103860003A6913403B613B685B681B0903F0010246
:103870007B6902FA03F33A6913433B617B683A6957
:103880005A603B685B6803F00303032B17D07B6827
:10389000DB683B617B695B00032202FA03F3DB43D5
:1038A0003A6913403B613B689A687B695B0002FAA6
:1038B00003F33A6913433B617B683A69DA603B681A
:1038C0005B6803F00303022B23D17B69DA087B6872
:1038D000083253F822303B617B6903F007039B00F9
:1038E0000F2202FA03F3DB433A6913403B613B6862
:1038F0001A697B6903F007039B0002FA03F33A6934
:1039000013433B617B69DA087B680832396943F805
:1039100022107B681B683B617B695B00032202FA13
:1039200003F3DB433A6913403B613B685B6803F098
:1039300003027B695B0002FA03F33A6913433B61BC
:103940007B683A691A603B685B6803F44033002B7C
:1039500000F08C804E4A7B699B08023352F823307A
:103960003B617B6903F003039B00072202FA03F328
:10397000DB433A6913403B617B68B3F1904F0DD054
:103980007B68444A934207D07B68434A934201D103
:10399000022304E0072302E0012300E000237A6908
:1039A00002F00302920093403A6913433B613849A5
:1039B0007B699B0802333A6941F82320374B1B6827
:1039C0003B61FB68DB433A6913403B613B685B68E2
:1039D00003F48013002B03D03A69FB6813433B6167
:1039E0002E4A3B6913602D4B5B683B61FB68DB43F0
:1039F0003A6913403B613B685B6803F40013002B9A
:103A000003D03A69FB6813433B61244A3B69536026
:103A1000224BD3F880303B61FB68DB433A691340AB
:103A20003B613B685B6803F48033002B03D03A6949
:103A3000FB6813433B61194A3B69C2F88030174B5E
:103A4000D3F884303B61FB68DB433A6913403B6148
:103A50003B685B6803F40033002B03D03A69FB68D2
:103A600013433B610D4A3B69C2F884307B690133E3
:103A70007B613B681A687B6922FA03F3002B7FF4B1
:103A8000B7AE00BF00BF1C37BD4680BC704700BF4B
:103A900000000140000400480008004800080058E9
:103AA00080B483B000AF78600B467B8013467B7098
:103AB0007B78002B03D07A887B689A6102E07A8851
:103AC0007B689A6200BF0C37BD4680BC704700001F
:103AD00080B400AF044B1B68034A43F48073136047
:103AE00000BFBD4680BC70470004005880B400AFE2
:103AF000034B1B6803F4C0631846BD4680BC704787
:103B00000004005880B400AF064B1B6803F48073B8
:103B1000B3F5807F01D1012300E000231846BD46A4
:103B200080BC70470004005880B400AF4FF0B04331
:103B30001B684FF0B04243F40013136000BFBD4652
:103B400080BC704780B400AF4FF0B0431B684FF0AB
:103B5000B04223F40013136000BFBD4680BC704721
:103B600080B400AF4FF0B0431B6803F48013B3F58B
:103B7000801F01D1012300E000231846BD4680BC10
:103B8000704780B400AF4FF0B0431B684FF0B042B5
:103B900043F48033136000BFBD4680BC704780B4DF
:103BA00000AF4FF0B0431B684FF0B04223F48033B6
:103BB000136000BFBD4680BC704780B400AF4FF0BB
:103BC000B0431B6803F40033B3F5003F01D1012378
:103BD00000E000231846BD4680BC704780B400AFAB
:103BE0004FF0B0431B684FF0B04243F48073136052
:103BF00000BFBD4680BC704780B400AF4FF0B043FB
:103C00001B684FF0B04223F48073136000BFBD46C1
:103C100080BC704780B400AF4FF0B0431B6803F422
:103C20008063B3F5806F01D1012300E000231846C3
:103C3000BD4680BC704780B483B000AF78604FF061
:103C4000B0435B6823F0FE427B681B064FF0B04137
:103C500013434B6000BF0C37BD4680BC704780B437
:103C600000AF4FF0B043D3F8903003F00203022BC3
:103C700001D1012300E000231846BD4680BC7047F7
:103C800080B400AF4FF0B043D3F894304FF0B0425F
:103C900043F00103C2F8943000BFBD4680BC7047BA
:103CA00080B400AF4FF0B043D3F894304FF0B0423F
:103CB00023F00103C2F8943000BFBD4680BC7047BA
:103CC00080B400AF4FF0B043D3F8943003F0020358
:103CD000022B01D1012300E000231846BD4680BC21
:103CE000704780B400AF4FF0B0431B684FF0B04254
:103CF00043F00103136000BFBD4680BC704780B431
:103D000000AF4FF0B0431B684FF0B04223F0010307
:103D1000136000BFBD4680BC704780B400AF4FF059
:103D2000B0431B6803F00203022B01D1012300E022
:103D300000231846BD4680BC704780B400AF4FF0EA
:103D4000B0431B6803F00803082B01D1012300E0F6
:103D500000231846BD4680BC704780B400AF4FF0CA
:103D6000B0431B6803F0F0031846BD4680BC7047A3
:103D700080B400AF4FF0B043D3F8943003F47063D5
:103D80001846BD4680BC704780B483B000AF7860F1
:103D90004FF0B0435B6823F47F427B681B024FF017
:103DA000B04113434B6000BF0C37BD4680BC704729
:103DB00080B483B000AF78604FF0B0439B6823F0CD
:103DC00003024FF0B0417B6813438B6000BF0C3798
:103DD000BD4680BC704780B400AF4FF0B0439B68D5
:103DE00003F00C031846BD4680BC704780B483B016
:103DF00000AF78604FF0B0439B6823F0F0024FF0C3
:103E0000B0417B6813438B6000BF0C37BD4680BC5C
:103E1000704780B483B000AF78604FF0B043D3F800
:103E2000083123F0F0024FF0B0417B681343C1F832
:103E3000083100BF0C37BD4680BC704780B483B0EA
:103E400000AF78604FF0B043D3F8083123F00F0291
:103E50007B681B094FF0B0411343C1F8083100BF24
:103E60000C37BD4680BC704780B483B000AF78602B
:103E70004FF0B0439B6823F4E0624FF0B0417B68A1
:103E800013438B6000BF0C37BD4680BC704780B4C5
:103E900083B000AF78604FF0B0439B6823F460526A
:103EA0004FF0B0417B6813438B6000BF0C37BD46B9
:103EB00080BC704780B400AF4FF0B0439B6803F004
:103EC000F0031846BD4680BC704780B400AF4FF089
:103ED000B043D3F808311B0103F0F0031846BD4688
:103EE00080BC704780B400AF4FF0B0439B6803F4D0
:103EF000E0631846BD4680BC704780B400AF4FF009
:103F0000B0439B6803F460531846BD4680BC7047BD
:103F100080B400AF4FF0B0431B684FF0B04243F0A5
:103F20008073136000BFBD4680BC704780B400AF93
:103F30004FF0B0431B684FF0B04223F08073136022
:103F400000BFBD4680BC704780B400AF4FF0B043A7
:103F50001B6803F00073B3F1007F01D1012300E07F
:103F600000231846BD4680BC704780B400AF4FF0B8
:103F7000B043DB681B0A03F07F031846BD4680BCD4
:103F8000704780B400AF4FF0B043DB6803F060438C
:103F90001846BD4680BC704780B400AF4FF0B043B8
:103FA000DB6803F070031846BD4680BC704780B4E0
:103FB00000AF4FF0B043DB6803F003031846BD4683
:103FC00080BC704780B400AF4FF0B0439B6803F4EF
:103FD0008033B3F5803F01D1012300E00023184670
:103FE000BD4680BC704780B400AF4FF0B043D3F8FB
:103FF000083103F40033B3F5003F01D1012300E0A1
:1040000000231846BD4680BC704780B400AF4FF017
:10401000B043D3F8083103F48033B3F5803F01D1C6
:10402000012300E000231846BD4680BC704780B4E1
:1040300000AF4FF0B0439B6803F40033B3F5003F8B
:1040400001D1012300E000231846BD4680BC704723
:1040500080B400AF4FF0B0439B6803F48023B3F506
:10406000802F01D1012300E000231846BD4680BC0B
:104070007047000080B588B000AF78607B68002B87
:1040800001D101236FE3FFF7A6FEF861FFF78FFF71
:10409000B8617B681B6803F02003002B00F0C4802C
:1040A000FB69002B05D0FB690C2B76D1BB69012B7A
:1040B00073D17B681B6A002B01D1012353E37B681A
:1040C0009A6A4FF0B0431B6803F00803002B05D039
:1040D0004FF0B0431B6803F0F00306E04FF0B0432D
:1040E000D3F894301B0903F0F003934222D27B688B
:1040F0009B6A184600F05AFD0346002B01D00123AD
:1041000031E34FF0B0431B684FF0B04243F0080377
:1041100013604FF0B0431B6823F0F0027B689B6A8A
:104120004FF0B04113430B607B685B6A1846FFF7A2
:104130002BFE21E04FF0B0431B684FF0B04243F03C
:10414000080313604FF0B0431B6823F0F0027B6854
:104150009B6A4FF0B04113430B607B685B6A184663
:10416000FFF712FE7B689B6A184600F01FFD0346AE
:10417000002B01D00123F6E200F0E0FC0346A74A41
:104180001360A74B1B681846FEF782FA0346FB74C0
:10419000FB7C002B47D0FB7CE5E27B681B6A002B95
:1041A0002CD0FFF79EFDFEF755F9786108E0FEF789
:1041B00051F902467B69D31A022B01D90323D2E2BB
:1041C000FFF7ABFD0346002BF1D04FF0B0431B6867
:1041D0004FF0B04243F0080313604FF0B0431B6848
:1041E00023F0F0027B689B6A4FF0B04113430B60F1
:1041F0007B685B6A1846FFF7C7FD15E0FFF77FFD98
:10420000FEF728F9786108E0FEF724F902467B6999
:10421000D31A022B01D90323A5E2FFF77EFD034643
:10422000002BF1D100E000BF7B681B6803F00103A5
:10423000002B58D0FB69082B05D0FB690C2B08D14B
:10424000BB69032B05D17B685B68002B4BD1012335
:1042500089E24FF0B0431B6823F480127B689B68AF
:104260004FF0B04113430B607B685B68B3F5803F50
:1042700002D1FFF786FC0DE07B685B68B3F5041F95
:1042800004D1FFF751FCFFF77CFC03E0FFF787FC4C
:10429000FFF758FC7B685B68002B12D0FEF7DAF85A
:1042A000786108E0FEF7D6F802467B69D31A642BE2
:1042B00001D9032357E2FFF780FC0346002BF1D01E
:1042C00011E0FEF7C7F8786108E0FEF7C3F8024690
:1042D0007B69D31A642B01D9032344E2FFF76DFCF9
:1042E0000346002BF1D17B681B6803F00203002B0F
:1042F00046D0FB69042B05D0FB690C2B0ED1BB69A2
:10430000022B0BD17B681B69002B01D101232AE210
:104310007B685B691846FFF78EFC31E07B681B69A0
:10432000002B19D0FFF75AFCFEF794F8786108E0EB
:10433000FEF790F802467B69D31A022B01D90323BA
:1043400011E2FFF767FC0346002BF1D07B685B6945
:104350001846FFF770FC13E0FFF74EFCFEF77AF803
:10436000786108E0FEF776F802467B69D31A022BE3
:1043700001D90323F7E1FFF74DFC0346002BF1D1F0
:104380007B681B6803F00803002B6ED07B689B6979
:10439000002B56D04FF0B043D3F89430FB607B68CD
:1043A000DA69FB6803F010039A4231D0FB6803F02E
:1043B0000203002B06D0FB6803F00103002B01D1A0
:1043C0000123D0E1FB6803F00103002B13D0FFF7BA
:1043D00067FCFEF73FF8786108E0FEF73BF802461D
:1043E0007B69D31A112B01D90323BCE1FFF768FCC9
:1043F0000346002BF1D14FF0B043D3F8943023F0B3
:1044000010027B68DB694FF0B0411343C1F8943070
:10441000FFF736FCFEF71EF878610CE00C00002078
:1044200010000020FEF716F802467B69D31A112B04
:1044300001D9032397E1FFF743FC0346002BF1D09A
:1044400013E0FFF72DFCFEF705F8786108E0FEF7B2
:1044500001F802467B69D31A112B01D9032382E1AB
:10446000FFF72EFC0346002BF1D17B681B6803F09D
:104470000403002B00F0D880FFF744FB0346002B19
:1044800013D1FFF725FBFDF7E5FF786108E0FDF7A5
:10449000E1FF02467B69D31A022B01D9032362E1B3
:1044A000FFF730FB0346002BF1D07B68DB68002B65
:1044B0007BD07B68DB68852B03D07B68DB68052BB2
:1044C00009D14FF0B043D3F890304FF0B04243F0F1
:1044D0000403C2F89030FDF7BDFF78614FF0B043A0
:1044E000D3F890304FF0B04243F00103C2F890305F
:1044F0000AE0FDF7AFFF02467B69D31A41F288322A
:10450000934201D903232EE1FFF7A9FB0346002BB9
:10451000EFD07B68DB68812B03D07B68DB68852B61
:1045200021D1FDF797FF78614FF0B043D3F8903079
:104530004FF0B04243F08003C2F890300AE0FDF73C
:1045400089FF02467B69D31A41F28832934201D92E
:10455000032308E14FF0B043D3F8903003F4006335
:10456000002BECD060E0FDF775FF78614FF0B043B1
:10457000D3F890304FF0B04223F08003C2F890306F
:104580000AE0FDF767FF02467B69D31A41F28832E1
:10459000934201D90323E6E04FF0B043D3F89030C3
:1045A00003F40063002BECD13EE0FDF753FF78618C
:1045B0004FF0B043D3F890304FF0B04223F0800377
:1045C000C2F890300AE0FDF745FF02467B69D31A36
:1045D00041F28832934201D90323C4E04FF0B04343
:1045E000D3F8903003F40063002BECD1FDF732FFD9
:1045F00078614FF0B043D3F890304FF0B04223F0E1
:104600000103C2F890300AE0FDF724FF02467B69FF
:10461000D31A41F28832934201D90323A3E0FFF772
:104620001EFB0346002BEFD17B68DB6A002B00F0FA
:104630009980FB690C2B6CD07B68DB6A022B4BD119
:10464000FFF774FCFDF706FF786108E0FDF702FF55
:1046500002467B69D31A0A2B01D9032383E0FFF7B3
:1046600073FC0346002BF1D14FF0B043DA68404BA6
:1046700013407A68116B7A68526B11437A68926BB7
:10468000120211437A68D26B11437A68126C11439B
:104690007A68526C0A434FF0B0411343CB60FFF786
:1046A00037FC4FF0B043DB684FF0B04243F080532B
:1046B000D360FDF7CFFE786108E0FDF7CBFE024640
:1046C0007B69D31A0A2B01D903234CE0FFF73CFC8A
:1046D0000346002BF1D045E0FFF728FCFDF7BAFEBA
:1046E000786108E0FDF7B6FE02467B69D31A0A2B13
:1046F00001D9032337E0FFF727FC0346002BF1D154
:104700004FF0B043DA684FF0B0411A4B1340CB6022
:1047100028E07B68DB6A012B01D1012323E04FF005
:10472000B043DB68BB61BB6903F003027B681B6BB2
:104730009A4215D1BB6903F070027B685B6B9A42A9
:104740000ED1BB6903F4FE427B689B6B1B029A424D
:1047500006D1BB6903F060427B685B6C9A4201D072
:10476000012300E0002318462037BD4680BD00BF6E
:104770008C80C111FCFFFEEE80B584B000AF786084
:1047800039607B68002B01D101232CE1984B1B6819
:1047900003F007033A689A421BD9954B1B6823F034
:1047A000070293493B6813430B60FDF753FEF86023
:1047B00008E0FDF74FFE0246FB68D31A022B01D931
:1047C000032310E18A4B1B6803F007033A689A42FF
:1047D000EFD17B681B6803F00203002B16D07B68C7
:1047E0009B681846FFF702FBFDF734FEF86008E00F
:1047F000FDF730FE0246FB68D31A022B01D90323D2
:10480000F1E0FFF7DFFB0346002BF1D07B681B686C
:1048100003F02003002B16D07B685B691846FFF776
:10482000F8FAFDF717FEF86008E0FDF713FE024600
:10483000FB68D31A022B01D90323D4E0FFF7D3FB83
:104840000346002BF1D07B681B6803F04003002B6C
:1048500016D07B689B691846FFF7F0FAFDF7FAFD62
:10486000F86008E0FDF7F6FD0246FB68D31A022B5C
:1048700001D90323B7E0FFF7C8FB0346002BF1D0B3
:104880007B681B6803F00403002B16D07B68DB6891
:104890001846FFF7E9FAFDF7DDFDF86008E0FDF7DF
:1048A000D9FD0246FB68D31A022B01D903239AE0F3
:1048B000FFF7BDFB0346002BF1D07B681B6803F0BC
:1048C0000803002B17D07B681B69DB001846FFF735
:1048D000DEFAFDF7BFFDF86008E0FDF7BBFD02461C
:1048E000FB68D31A022B01D903237CE0FFF7B0FB4E
:1048F0000346002BF1D07B681B6803F00103002BFB
:1049000043D07B685B68022B06D1FFF756F903465C
:10491000002B1ED1012366E07B685B68032B06D168
:10492000FFF712FB0346002B13D101235BE07B68EA
:104930005B68002B06D1FFF7F0F90346002B08D186
:10494000012350E0FFF766F90346002B01D1012354
:1049500049E07B685B681846FFF72AFAFDF77AFDA5
:10496000F8600AE0FDF776FD0246FB68D31A41F2D3
:104970008832934201D9032335E0FFF72CFA02462F
:104980007B685B689B009A42ECD1194B1B6803F073
:1049900007033A689A421BD2154B1B6823F00702A3
:1049A00013493B6813430B60FDF754FDF86008E0C2
:1049B000FDF750FD0246FB68D31A022B01D90323F1
:1049C00011E00B4B1B6803F007033A689A42EFD1E2
:1049D00000F0B4F80346074A1360074B1B681846FB
:1049E000FDF756FE034618461037BD4680BD00BF92
:1049F000004000580C0000201000002090B587B047
:104A000000AF00237B6100233B61FFF7E4F9B8604E
:104A1000FFF7CDFA7860BB68002B05D0BB680C2B84
:104A200039D17B68012B36D1FFF787F90346002B7C
:104A300015D1FFF782F90346012B06D1FFF78DF957
:104A400003461B0A03F00F0305E0FFF791F9034645
:104A50001B0A03F00F03364A52F8233014E0FFF725
:104A60006CF90346012B06D1FFF777F903461B09C2
:104A700003F00F0305E0FFF77BF903461B0903F082
:104A80000F032B4A52F823303B61BB68002B15D132
:104A90003B697B6112E0BB68042B02D1254B7B6133
:104AA0000CE0BB68082B09D1FFF75AF80346012B2D
:104AB00002D1204B7B6101E01F4B7B61FFF78BF93B
:104AC00003460C2B2FD1FFF772FA78607B68022B1C
:104AD00003D07B68032B03D00DE0164BFB600DE089
:104AE000FFF73EF80346012B02D1124BFB6005E0B5
:104AF000114BFB6002E03B69FB6000BFFFF735FA3A
:104B00000246FB6803FB02F4FFF746FA03461B0963
:104B10000133B4FBF3F4FFF734FA03465B0F0133C0
:104B2000B4FBF3F37B617B6918461C37BD4690BD2F
:104B30006CDD00080024F4000048E80198B500AFDF
:104B4000FFF75CFF0446FFF7B5F903461B0903F0C6
:104B50000F03034A52F82330B4FBF3F3184698BD11
:104B60000CDD000898B500AFFFF7E8FF0446FFF73B
:104B7000B9F903461B0A034A52F8233024FA03F317
:104B8000184698BD4CDD000898B500AFFFF7D6FF7A
:104B90000446FFF7B2F90346DB0A034A52F8233012
:104BA00024FA03F3184698BD4CDD000890B585B093
:104BB00000AF78607B681B0903F00F03104A52F8BE
:104BC0002330FB60FFF781F903461B0903F00F0355
:104BD0000C4A52F82330FA68B2FBF3F3BB60BB68AF
:104BE000094AA2FB03239C0CFEF780FF03461946EB
:104BF000204600F00BF8034618461437BD4690BD1A
:104C00006CDD00080CDD000883DE1B4380B58EB030
:104C100000AF786039603A4A07F1200392E8030058
:104C2000186004331980374A07F1180392E803002B
:104C3000186004331980344A07F10C0307CA83E86B
:104C4000070000237B633B68B3F5007F1BD1002383
:104C50003B6314E03B6B5B0038333B4433F8183C58
:104C60001A467B68934207D83B6B9B0038333B4422
:104C700053F82C3C7B6321E03B6B01333B633B6B84
:104C8000022BE7D91AE00023FB6214E0FB6A5B0009
:104C900038333B4433F8203C1A467B68934207D8AC
:104CA000FB6A9B0038333B4453F82C3C7B6305E0A4
:104CB000FB6A0133FB62FB6A022BE7D9134B1B68CB
:104CC00023F0070211497B6B13430B60FDF7C2FB16
:104CD000B86208E0FDF7BEFB0246BB6AD31A022B9E
:104CE00001D9032307E0094B1B6803F007037A6B24
:104CF0009A42EFD1002318463837BD4680BD00BF29
:104D0000CCDC0008D4DC0008DCDC000800400058E3
:104D100080B400AF4FF0B043D3F8903003F00203FB
:104D2000022B01D1012300E000231846BD4680BCC0
:104D3000704780B483B000AF78604FF0B043D3F8D1
:104D400088207B681B0CDB431A407B689BB24FF0CA
:104D5000B0411343C1F8883000BF0C37BD4680BC5A
:104D6000704780B483B000AF78604FF0B043D3F8A1
:104D7000883023F440724FF0B0417B681343C1F890
:104D8000883000BF0C37BD4680BC704780B483B00C
:104D900000AF78604FF0B043D3F8883023F440621E
:104DA0004FF0B0417B681343C1F8883000BF0C3727
:104DB000BD4680BC704780B483B000AF78604FF0D0
:104DC000B043D3F888207B681B0903F47F23DB43BF
:104DD0001A407B681B0103F47F234FF0B04113435B
:104DE000C1F8883000BF0C37BD4680BC704780B426
:104DF00083B000AF78604FF0B043D3F888207B6871
:104E00001B0C1B04DB431A407B681B044FF0B041B2
:104E10001343C1F8883000BF0C37BD4680BC7047D3
:104E200080B483B000AF78604FF0B043D3F88830DF
:104E300023F040424FF0B0417B681343C1F8883003
:104E400000BF0C37BD4680BC704780B483B000AF54
:104E500078604FF0B043D3F8883023F040524FF0E1
:104E6000B0417B681343C1F8883000BF0C37BD46A2
:104E700080BC704780B483B000AF78604FF0B0431F
:104E8000D3F8903023F440724FF0B0417B68134365
:104E9000C1F8903000BF0C37BD4680BC704780B46D
:104EA00000AF4FF0B043D3F8903003F4407318468E
:104EB000BD4680BC704780B400AF4FF0B043D3F81C
:104EC00090304FF0B04243F48033C2F8903000BFCE
:104ED000BD4680BC704780B400AF4FF0B043D3F8FC
:104EE00090304FF0B04223F48033C2F8903000BFCE
:104EF000BD4680BC7047000080B586B000AF7860CA
:104F000000237B610023FB740023BB747B681B6858
:104F100003F48033002B58D0FEF7DAFDFDF79AFA40
:104F2000F86009E0FDF796FA0246FB68D31A022BF7
:104F300002D90323FB7406E07B4B1B6803F48073E8
:104F4000B3F5807FEED1FB7C002B3CD1FFF7A7FFB0
:104F500002467B685B6B9A420FD04FF0B043D3F8A8
:104F6000903023F440737B61FFF7A5FFFFF7B3FF99
:104F70004FF0B0427B69C2F890307B6903F00203C6
:104F8000002B14D0FDF766FAF8600BE0FDF762FA2B
:104F90000246FB68D31A41F28832934202D90323B6
:104FA000FB7404E0FFF7B4FE0346012BEED1FB7C5B
:104FB000002B05D17B685B6B1846FFF75BFF04E0B5
:104FC000FB7CBB7401E0FB7CBB747B681B6803F05B
:104FD0000103002B04D07B685B681846FFF7A9FE2D
:104FE0007B681B6803F00203002B04D07B689B687E
:104FF0001846FFF79EFE7B681B6803F02003002B1A
:1050000004D07B681B691846FFF7C0FE7B681B68ED
:1050100003F40073002B04D07B681B6A1846FFF76B
:10502000E6FE7B681B6803F48063002B04D07B687A
:105030005B6A1846FFF7DBFE7B681B6803F40063BE
:10504000002B04D07B689B6A1846FFF7D0FE7B6874
:105050001B6803F04003002B04D07B685B69184693
:10506000FFF7A9FE7B681B6803F08003002B04D0C8
:105070007B689B691846FFF79EFE7B681B6803F4FC
:105080008073002B04D07B68DB691846FFF793FE22
:105090007B681B6803F01003002B11D07B68DB6872
:1050A0001846FFF75EFE7B68DB68B3F5807F07D1AB
:1050B0004FF0B043DB684FF0B04243F08073D360F1
:1050C0007B681B6803F40043002B10D07B681B6BCC
:1050D0001846FFF7A5FE7B681B6B002B07D14FF02E
:1050E000B043DB684FF0B04243F08073D3607B681D
:1050F0001B6803F48043002B11D07B68DB6A1846E1
:10510000FFF7A3FE7B68DB6AB3F1005F07D14FF0C6
:10511000B043DB684FF0B04243F48033D360BB7CD4
:1051200018461837BD4680BD0004005880B584B0CD
:1051300000AF78600123FB737B68002B71D07B6824
:1051400093F82D30DBB2002B06D17B68002283F868
:105150002C207868FDF76EF87B68022283F82D20FA
:10516000324BDB6803F01003102B51D02F4BCA22B7
:105170005A622E4B53225A62786800F051FA034665
:10518000FB73FB7B002B3FD1284B9B69274A23F005
:105190008E6323F040039361244B9A697B685968BE
:1051A0007B681B6919437B689B690B431F49134349
:1051B0008B617B68DA687B689B681B041B4913431F
:1051C0000B611A4BDB6823F4F8527B68596A7B68E1
:1051D0009B6A0B4315491343CB60786800F054FA7F
:1051E0000346FB73FB7B002B0ED1104B9B6923F016
:1051F00060427B68196A7B68DB6919437B685B697D
:105200000B430A4913438B61084BFF225A6201E0AA
:105210000023FB73FB7B002B03D17B68012283F807
:105220002D20FB7B18461037BD4680BD002800406E
:1052300090B587B000AFF860B9607A60FB6893F80A
:105240002C30012B01D1022388E0FB68012283F876
:105250002C20FB68022283F82D20424BCA225A627E
:10526000404B53225A62F86800F0DAF90346FB74A7
:10527000FB7C002B5ED13B4BDB6803F44073B3F542
:10528000807F57D07B68002B25D1364B9B6903F07C
:105290004003002B02D1BB680022DA70BB681B7888
:1052A000184600F02FFA03461C04BB685B781846CA
:1052B00000F028FA03461B021C43BB689B78184683
:1052C00000F020FA034644EA0302BB68DB789B0542
:1052D00013437B6117E0234B9B6903F04003002BD2
:1052E00002D1BB680022DA70BB681B781A04BB6865
:1052F0005B781B021343BA6892781A43BB68DB7869
:105300009B0513437B61174A7B6903F07F3323F0CE
:10531000FE431360134B9B69124A23F4802393616D
:10532000104B9A69BB68D968BB681B690B430D4970
:1053300013438B61F86800F0A7F90346FB74094B2F
:10534000FF225A62FB7C002B03D1FB68012283F809
:105350002D20FB68002283F82C20FB7C18461C378C
:10536000BD4690BD0028004080B586B000AFF86013
:10537000B9607A602C4B9A68BB685A602A4BDB682C
:1053800003F44073B3F5807F49D0274B1B69C3F307
:105390000E02BB689A60244B1B6803F07F3323F036
:1053A000FE437B617B691B0CDBB203F03F03DAB287
:1053B000BB681A707B691B0ADBB203F07F03DAB2A9
:1053C000BB685A707B69DBB203F07F03DAB2BB685B
:1053D0009A707B699B0DDBB203F00103DAB2BB6804
:1053E000DA707B68002B1AD1BB681B78184600F076
:1053F000A8F903461A46BB681A70BB685B78184662
:1054000000F09FF903461A46BB685A70BB689B7848
:10541000184600F096F903461A46BB689A700023B6
:1054200018461837BD4680BD0028004090B587B0AB
:1054300000AFF860B9607A60FB6893F82C30012BFC
:1054400001D1022371E0FB68012283F82C20FB6864
:10545000022283F82D207B68002B0ED1BB685B787D
:1054600003F01003002B08D0BB685B7823F0100317
:10547000DBB20A33DAB2BB685A707B68002B1CD1EE
:10548000BB68DB78184600F03DF903461C04BB6896
:105490005B78184600F036F903461B021C43BB68D4
:1054A0009B78184600F02EF9034644EA0302BB68D5
:1054B0001B785B0313437B610EE0BB68DB781A0447
:1054C000BB685B781B021343BA6892781A43BB68C7
:1054D0001B785B0313437B61164BCA225A62154B40
:1054E00053225A62F86800F09BF80346FB74FB7C79
:1054F000002B0BD10F4A7B6923F07F4323F0C003BD
:105500005360F86800F0C0F80346FB74094BFF22B3
:105510005A62FB7C002B03D1FB68012283F82D200B
:10552000FB68002283F82C20FB7C18461C37BD4604
:1055300090BD00BF0028004080B586B000AFF86085
:10554000B9607A60224B5B6823F07F4323F0C0038D
:105550007B617B691B0CDAB2BB68DA707B691B0A62
:10556000DBB203F01F03DAB2BB685A707B69DBB2AF
:1055700003F03F03DAB2BB689A707B695B0BDBB266
:1055800003F00703DAB2BB681A707B68002B1AD1EC
:10559000BB68DB78184600F0D4F803461A46BB68AF
:1055A000DA70BB685B78184600F0CBF803461A4601
:1055B000BB685A70BB689B78184600F0C2F8034677
:1055C0001A46BB689A70002318461837BD4680BD3E
:1055D0000028004080B584B000AF78600F4BDB68D6
:1055E0000E4A23F02003D360FCF734FFF86009E093
:1055F000FCF730FF0246FB68D31AB3F57A7F01D976
:10560000032306E0054BDB6803F02003002BEFD0FB
:10561000002318461037BD4680BD00BF002800405B
:1056200080B584B000AF78600023FB73154BDB6856
:1056300003F04003002B20D1124BDB68114A43F0EA
:105640008003D360FCF706FFB8600DE0FCF702FFB3
:105650000246BB68D31AB3F57A7F05D90323FB73DF
:105660007B68032283F82D20064BDB6803F04003A0
:10567000002B02D1FB7B032BE8D1FB7B18461037B4
:10568000BD4680BD0028004080B584B000AF786082
:105690000023FB731A4BDB68194A23F08003D360A5
:1056A000174B9B6903F02003002B0CD17868FFF7A0
:1056B00091FF0346002B1ED07B68032283F82D2028
:1056C0000323FB7317E00E4B9B690D4A23F0200365
:1056D00093617868FFF77EFF0346002B05D07B6857
:1056E000032283F82D200323FB73054B9B69044A97
:1056F00043F020039361FB7B18461037BD4680BD05
:105700000028004080B485B000AF0346FB71002341
:10571000FB60FB79FB7205E0FB680133FB60FB7A01
:105720000A3BFB72FB7A092BF6D8FB68DBB21B0144
:10573000DAB2FB7A1343DBB218461437BD4680BC9D
:10574000704780B485B000AF0346FB71FB791B093D
:10575000DBB21A4613469B0013445B00FB60FB68F8
:10576000DAB2FB7903F00F03DBB21344DBB2184665
:105770001437BD4680BC704780B584B000AF7860F8
:105780007B68002B01D10123C6E07B685B6A002B9C
:1057900008D17B685B68B3F5827F09D07B68002203
:1057A000DA6105E07B6800221A617B6800225A6199
:1057B0007B6893F85D30DBB2002B06D17B6800225A
:1057C00083F85C207868FCF761FD7B68022283F82F
:1057D0005D207B681B681A687B681B6822F04002AA
:1057E0001A607B68DB68B3F5E06F02D90023FB60C9
:1057F00002E04FF48053FB607B68DB68B3F5706FA9
:1058000007D07B68DB68B3F5E06F02D07B680022CD
:105810009A627B685B6803F482727B689B6803F41E
:1058200004431A437B681B6903F002031A437B6835
:105830005B6903F001031A437B689B6903F40073FF
:105840001A437B68DB6903F038031A437B681B6AE1
:1058500003F0800342EA03017B689B6A03F4005271
:105860007B681B680A431A607B689B6AB3F5005F1C
:105870001BD17B681B6B002B0BD17B68DB68B3F5FE
:10588000E06F03D97B6802221A6302E07B68012281
:105890001A637B681B6B022B07D17B681B681A6835
:1058A0007B681B6842F400621A607B689B691B0C72
:1058B00003F004027B685B6A03F010031A437B6801
:1058C0005B6B03F008031A437B68DB6803F47063C7
:1058D00042EA0301FB6803F480527B681B680A43B9
:1058E0005A607B689B6AB3F5005F05D17B68DA6A12
:1058F0007B681B6892B21A617B681B68DA697B68F7
:105900001B6822F40062DA617B6800221A667B68F9
:10591000012283F85D20002318461037BD4680BD64
:1059200080B588B000AFF860B9603B601346FB807B
:105930000023FB77FB6893F85C30012B01D1022335
:105940007AE1FB68012283F85C20FCF783FDB861F3
:10595000FB88FB82FB6893F85D30DBB2012B02D041
:105960000223FB775FE1BB68002B02D0FB88002B92
:1059700002D10123FB7756E1FB68032283F85D2007
:10598000FB6800221A66FB68BA689A63FB68FA88AB
:105990009A87FB68FA88DA87FB6800221A64FB683A
:1059A0000022A3F84420FB680022A3F84620FB68ED
:1059B00000221A65FB680022DA64FB689B68B3F575
:1059C000004F0FD1FB681B681A68FB681B6822F048
:1059D00040021A60FB681B681A68FB681B6842F487
:1059E00080421A60FB689B6AB3F5005F0FD1FB68C9
:1059F0001B681A68FB681B6822F400521A60FB6877
:105A00001B681A68FB681B6842F400521A60FB6846
:105A10001B681B6803F04003402B07D0FB681B6822
:105A20001A68FB681B6842F040021A60FB68DB687A
:105A3000B3F5E06F4BD9FB685B68002B02D0FB8AA3
:105A4000012B3ED1FB689B6B1A88FB681B68DA60F0
:105A5000FB689B6B9A1CFB689A63FB68DB8F9BB2AD
:105A6000013B9AB2FB68DA872BE0FB681B689B68F6
:105A700003F00203022B12D1FB689B6B1A88FB68B0
:105A80001B68DA60FB689B6B9A1CFB689A63FB6877
:105A9000DB8F9BB2013B9AB2FB68DA8711E0FCF71F
:105AA000D9FC0246BB69D31A3A689A4203D83B68CC
:105AB000B3F1FF3F02D13B68002B02D10323FB77F8
:105AC000B1E0FB68DB8F9BB2002BCED17CE0FB68A2
:105AD0005B68002B02D0FB8A012B70D1FB68DB8F47
